{
  "address": "0x47a943E42194030d3550A176aFcAfe12b2a2fB84",
  "abi": [
    {
      "inputs": [
        {
          "internalType": "address",
          "name": "_lzEndpoint",
          "type": "address"
        }
      ],
      "stateMutability": "nonpayable",
      "type": "constructor"
    },
    {
      "anonymous": false,
      "inputs": [
        {
          "indexed": true,
          "internalType": "address",
          "name": "owner",
          "type": "address"
        },
        {
          "indexed": true,
          "internalType": "address",
          "name": "spender",
          "type": "address"
        },
        {
          "indexed": false,
          "internalType": "uint256",
          "name": "value",
          "type": "uint256"
        }
      ],
      "name": "Approval",
      "type": "event"
    },
    {
      "anonymous": false,
      "inputs": [
        {
          "indexed": false,
          "internalType": "uint16",
          "name": "_srcChainId",
          "type": "uint16"
        },
        {
          "indexed": false,
          "internalType": "bytes",
          "name": "_srcAddress",
          "type": "bytes"
        },
        {
          "indexed": false,
          "internalType": "uint64",
          "name": "_nonce",
          "type": "uint64"
        },
        {
          "indexed": false,
          "internalType": "bytes",
          "name": "_payload",
          "type": "bytes"
        },
        {
          "indexed": false,
          "internalType": "bytes",
          "name": "_reason",
          "type": "bytes"
        }
      ],
      "name": "MessageFailed",
      "type": "event"
    },
    {
      "anonymous": false,
      "inputs": [
        {
          "indexed": true,
          "internalType": "address",
          "name": "previousOwner",
          "type": "address"
        },
        {
          "indexed": true,
          "internalType": "address",
          "name": "newOwner",
          "type": "address"
        }
      ],
      "name": "OwnershipTransferred",
      "type": "event"
    },
    {
      "anonymous": false,
      "inputs": [
        {
          "indexed": false,
          "internalType": "uint16",
          "name": "_srcChainId",
          "type": "uint16"
        },
        {
          "indexed": false,
          "internalType": "bytes",
          "name": "_srcAddress",
          "type": "bytes"
        },
        {
          "indexed": false,
          "internalType": "uint64",
          "name": "_nonce",
          "type": "uint64"
        },
        {
          "indexed": false,
          "internalType": "bytes32",
          "name": "_payloadHash",
          "type": "bytes32"
        }
      ],
      "name": "RetryMessageSuccess",
      "type": "event"
    },
    {
      "anonymous": false,
      "inputs": [
        {
          "indexed": false,
          "internalType": "uint16",
          "name": "_dstChainId",
          "type": "uint16"
        },
        {
          "indexed": false,
          "internalType": "uint16",
          "name": "_type",
          "type": "uint16"
        },
        {
          "indexed": false,
          "internalType": "uint256",
          "name": "_minDstGas",
          "type": "uint256"
        }
      ],
      "name": "SetMinDstGas",
      "type": "event"
    },
    {
      "anonymous": false,
      "inputs": [
        {
          "indexed": false,
          "internalType": "address",
          "name": "precrime",
          "type": "address"
        }
      ],
      "name": "SetPrecrime",
      "type": "event"
    },
    {
      "anonymous": false,
      "inputs": [
        {
          "indexed": false,
          "internalType": "uint16",
          "name": "_remoteChainId",
          "type": "uint16"
        },
        {
          "indexed": false,
          "internalType": "bytes",
          "name": "_path",
          "type": "bytes"
        }
      ],
      "name": "SetTrustedRemote",
      "type": "event"
    },
    {
      "anonymous": false,
      "inputs": [
        {
          "indexed": false,
          "internalType": "uint16",
          "name": "_remoteChainId",
          "type": "uint16"
        },
        {
          "indexed": false,
          "internalType": "bytes",
          "name": "_remoteAddress",
          "type": "bytes"
        }
      ],
      "name": "SetTrustedRemoteAddress",
      "type": "event"
    },
    {
      "anonymous": false,
      "inputs": [
        {
          "indexed": true,
          "internalType": "address",
          "name": "from",
          "type": "address"
        },
        {
          "indexed": true,
          "internalType": "address",
          "name": "to",
          "type": "address"
        },
        {
          "indexed": false,
          "internalType": "uint256",
          "name": "value",
          "type": "uint256"
        }
      ],
      "name": "Transfer",
      "type": "event"
    },
    {
      "inputs": [],
      "name": "DEFAULT_PAYLOAD_SIZE_LIMIT",
      "outputs": [
        {
          "internalType": "uint256",
          "name": "",
          "type": "uint256"
        }
      ],
      "stateMutability": "view",
      "type": "function"
    },
    {
      "inputs": [
        {
          "internalType": "address",
          "name": "owner",
          "type": "address"
        },
        {
          "internalType": "address",
          "name": "spender",
          "type": "address"
        }
      ],
      "name": "allowance",
      "outputs": [
        {
          "internalType": "uint256",
          "name": "",
          "type": "uint256"
        }
      ],
      "stateMutability": "view",
      "type": "function"
    },
    {
      "inputs": [
        {
          "internalType": "address",
          "name": "spender",
          "type": "address"
        },
        {
          "internalType": "uint256",
          "name": "amount",
          "type": "uint256"
        }
      ],
      "name": "approve",
      "outputs": [
        {
          "internalType": "bool",
          "name": "",
          "type": "bool"
        }
      ],
      "stateMutability": "nonpayable",
      "type": "function"
    },
    {
      "inputs": [
        {
          "internalType": "address",
          "name": "account",
          "type": "address"
        }
      ],
      "name": "balanceOf",
      "outputs": [
        {
          "internalType": "uint256",
          "name": "",
          "type": "uint256"
        }
      ],
      "stateMutability": "view",
      "type": "function"
    },
    {
      "inputs": [],
      "name": "circulatingSupply",
      "outputs": [
        {
          "internalType": "uint256",
          "name": "",
          "type": "uint256"
        }
      ],
      "stateMutability": "view",
      "type": "function"
    },
    {
      "inputs": [],
      "name": "decimals",
      "outputs": [
        {
          "internalType": "uint8",
          "name": "",
          "type": "uint8"
        }
      ],
      "stateMutability": "view",
      "type": "function"
    },
    {
      "inputs": [
        {
          "internalType": "address",
          "name": "spender",
          "type": "address"
        },
        {
          "internalType": "uint256",
          "name": "subtractedValue",
          "type": "uint256"
        }
      ],
      "name": "decreaseAllowance",
      "outputs": [
        {
          "internalType": "bool",
          "name": "",
          "type": "bool"
        }
      ],
      "stateMutability": "nonpayable",
      "type": "function"
    },
    {
      "inputs": [
        {
          "internalType": "uint16",
          "name": "",
          "type": "uint16"
        },
        {
          "internalType": "bytes",
          "name": "",
          "type": "bytes"
        },
        {
          "internalType": "uint64",
          "name": "",
          "type": "uint64"
        }
      ],
      "name": "failedMessages",
      "outputs": [
        {
          "internalType": "bytes32",
          "name": "",
          "type": "bytes32"
        }
      ],
      "stateMutability": "view",
      "type": "function"
    },
    {
      "inputs": [
        {
          "internalType": "uint16",
          "name": "_srcChainId",
          "type": "uint16"
        },
        {
          "internalType": "bytes",
          "name": "_srcAddress",
          "type": "bytes"
        }
      ],
      "name": "forceResumeReceive",
      "outputs": [],
      "stateMutability": "nonpayable",
      "type": "function"
    },
    {
      "inputs": [
        {
          "internalType": "uint16",
          "name": "_version",
          "type": "uint16"
        },
        {
          "internalType": "uint16",
          "name": "_chainId",
          "type": "uint16"
        },
        {
          "internalType": "address",
          "name": "",
          "type": "address"
        },
        {
          "internalType": "uint256",
          "name": "_configType",
          "type": "uint256"
        }
      ],
      "name": "getConfig",
      "outputs": [
        {
          "internalType": "bytes",
          "name": "",
          "type": "bytes"
        }
      ],
      "stateMutability": "view",
      "type": "function"
    },
    {
      "inputs": [
        {
          "internalType": "uint16",
          "name": "_remoteChainId",
          "type": "uint16"
        }
      ],
      "name": "getTrustedRemoteAddress",
      "outputs": [
        {
          "internalType": "bytes",
          "name": "",
          "type": "bytes"
        }
      ],
      "stateMutability": "view",
      "type": "function"
    },
    {
      "inputs": [
        {
          "internalType": "address",
          "name": "spender",
          "type": "address"
        },
        {
          "internalType": "uint256",
          "name": "addedValue",
          "type": "uint256"
        }
      ],
      "name": "increaseAllowance",
      "outputs": [
        {
          "internalType": "bool",
          "name": "",
          "type": "bool"
        }
      ],
      "stateMutability": "nonpayable",
      "type": "function"
    },
    {
      "inputs": [
        {
          "internalType": "uint16",
          "name": "_srcChainId",
          "type": "uint16"
        },
        {
          "internalType": "bytes",
          "name": "_srcAddress",
          "type": "bytes"
        }
      ],
      "name": "isTrustedRemote",
      "outputs": [
        {
          "internalType": "bool",
          "name": "",
          "type": "bool"
        }
      ],
      "stateMutability": "view",
      "type": "function"
    },
    {
      "inputs": [],
      "name": "lzEndpoint",
      "outputs": [
        {
          "internalType": "contract ILayerZeroEndpoint",
          "name": "",
          "type": "address"
        }
      ],
      "stateMutability": "view",
      "type": "function"
    },
    {
      "inputs": [
        {
          "internalType": "uint16",
          "name": "_srcChainId",
          "type": "uint16"
        },
        {
          "internalType": "bytes",
          "name": "_srcAddress",
          "type": "bytes"
        },
        {
          "internalType": "uint64",
          "name": "_nonce",
          "type": "uint64"
        },
        {
          "internalType": "bytes",
          "name": "_payload",
          "type": "bytes"
        }
      ],
      "name": "lzReceive",
      "outputs": [],
      "stateMutability": "nonpayable",
      "type": "function"
    },
    {
      "inputs": [
        {
          "internalType": "uint16",
          "name": "",
          "type": "uint16"
        },
        {
          "internalType": "uint16",
          "name": "",
          "type": "uint16"
        }
      ],
      "name": "minDstGasLookup",
      "outputs": [
        {
          "internalType": "uint256",
          "name": "",
          "type": "uint256"
        }
      ],
      "stateMutability": "view",
      "type": "function"
    },
    {
      "inputs": [
        {
          "internalType": "uint16",
          "name": "_dstChainId",
          "type": "uint16"
        },
        {
          "internalType": "address",
          "name": "_toAddress",
          "type": "address"
        },
        {
          "internalType": "uint256",
          "name": "amount",
          "type": "uint256"
        },
        {
          "internalType": "bool",
          "name": "isMint",
          "type": "bool"
        }
      ],
      "name": "mintTokenOrBurn",
      "outputs": [],
      "stateMutability": "payable",
      "type": "function"
    },
    {
      "inputs": [],
      "name": "mockCounter",
      "outputs": [
        {
          "internalType": "uint256",
          "name": "",
          "type": "uint256"
        }
      ],
      "stateMutability": "view",
      "type": "function"
    },
    {
      "inputs": [],
      "name": "name",
      "outputs": [
        {
          "internalType": "string",
          "name": "",
          "type": "string"
        }
      ],
      "stateMutability": "view",
      "type": "function"
    },
    {
      "inputs": [
        {
          "internalType": "uint16",
          "name": "_srcChainId",
          "type": "uint16"
        },
        {
          "internalType": "bytes",
          "name": "_srcAddress",
          "type": "bytes"
        },
        {
          "internalType": "uint64",
          "name": "_nonce",
          "type": "uint64"
        },
        {
          "internalType": "bytes",
          "name": "_payload",
          "type": "bytes"
        }
      ],
      "name": "nonblockingLzReceive",
      "outputs": [],
      "stateMutability": "nonpayable",
      "type": "function"
    },
    {
      "inputs": [],
      "name": "owner",
      "outputs": [
        {
          "internalType": "address",
          "name": "",
          "type": "address"
        }
      ],
      "stateMutability": "view",
      "type": "function"
    },
    {
      "inputs": [
        {
          "internalType": "uint16",
          "name": "",
          "type": "uint16"
        }
      ],
      "name": "payloadSizeLimitLookup",
      "outputs": [
        {
          "internalType": "uint256",
          "name": "",
          "type": "uint256"
        }
      ],
      "stateMutability": "view",
      "type": "function"
    },
    {
      "inputs": [],
      "name": "precrime",
      "outputs": [
        {
          "internalType": "address",
          "name": "",
          "type": "address"
        }
      ],
      "stateMutability": "view",
      "type": "function"
    },
    {
      "inputs": [],
      "name": "renounceOwnership",
      "outputs": [],
      "stateMutability": "nonpayable",
      "type": "function"
    },
    {
      "inputs": [
        {
          "internalType": "uint16",
          "name": "_srcChainId",
          "type": "uint16"
        },
        {
          "internalType": "bytes",
          "name": "_srcAddress",
          "type": "bytes"
        },
        {
          "internalType": "uint64",
          "name": "_nonce",
          "type": "uint64"
        },
        {
          "internalType": "bytes",
          "name": "_payload",
          "type": "bytes"
        }
      ],
      "name": "retryMessage",
      "outputs": [],
      "stateMutability": "payable",
      "type": "function"
    },
    {
      "inputs": [
        {
          "internalType": "uint16",
          "name": "_version",
          "type": "uint16"
        },
        {
          "internalType": "uint16",
          "name": "_chainId",
          "type": "uint16"
        },
        {
          "internalType": "uint256",
          "name": "_configType",
          "type": "uint256"
        },
        {
          "internalType": "bytes",
          "name": "_config",
          "type": "bytes"
        }
      ],
      "name": "setConfig",
      "outputs": [],
      "stateMutability": "nonpayable",
      "type": "function"
    },
    {
      "inputs": [
        {
          "internalType": "uint16",
          "name": "_dstChainId",
          "type": "uint16"
        },
        {
          "internalType": "uint16",
          "name": "_packetType",
          "type": "uint16"
        },
        {
          "internalType": "uint256",
          "name": "_minGas",
          "type": "uint256"
        }
      ],
      "name": "setMinDstGas",
      "outputs": [],
      "stateMutability": "nonpayable",
      "type": "function"
    },
    {
      "inputs": [
        {
          "internalType": "uint16",
          "name": "_dstChainId",
          "type": "uint16"
        },
        {
          "internalType": "uint256",
          "name": "_size",
          "type": "uint256"
        }
      ],
      "name": "setPayloadSizeLimit",
      "outputs": [],
      "stateMutability": "nonpayable",
      "type": "function"
    },
    {
      "inputs": [
        {
          "internalType": "address",
          "name": "_precrime",
          "type": "address"
        }
      ],
      "name": "setPrecrime",
      "outputs": [],
      "stateMutability": "nonpayable",
      "type": "function"
    },
    {
      "inputs": [
        {
          "internalType": "uint16",
          "name": "_version",
          "type": "uint16"
        }
      ],
      "name": "setReceiveVersion",
      "outputs": [],
      "stateMutability": "nonpayable",
      "type": "function"
    },
    {
      "inputs": [
        {
          "internalType": "uint16",
          "name": "_version",
          "type": "uint16"
        }
      ],
      "name": "setSendVersion",
      "outputs": [],
      "stateMutability": "nonpayable",
      "type": "function"
    },
    {
      "inputs": [
        {
          "internalType": "uint16",
          "name": "_srcChainId",
          "type": "uint16"
        },
        {
          "internalType": "bytes",
          "name": "_path",
          "type": "bytes"
        }
      ],
      "name": "setTrustedRemote",
      "outputs": [],
      "stateMutability": "nonpayable",
      "type": "function"
    },
    {
      "inputs": [
        {
          "internalType": "uint16",
          "name": "_remoteChainId",
          "type": "uint16"
        },
        {
          "internalType": "bytes",
          "name": "_remoteAddress",
          "type": "bytes"
        }
      ],
      "name": "setTrustedRemoteAddress",
      "outputs": [],
      "stateMutability": "nonpayable",
      "type": "function"
    },
    {
      "inputs": [],
      "name": "symbol",
      "outputs": [
        {
          "internalType": "string",
          "name": "",
          "type": "string"
        }
      ],
      "stateMutability": "view",
      "type": "function"
    },
    {
      "inputs": [],
      "name": "totalSupply",
      "outputs": [
        {
          "internalType": "uint256",
          "name": "",
          "type": "uint256"
        }
      ],
      "stateMutability": "view",
      "type": "function"
    },
    {
      "inputs": [
        {
          "internalType": "address",
          "name": "to",
          "type": "address"
        },
        {
          "internalType": "uint256",
          "name": "amount",
          "type": "uint256"
        }
      ],
      "name": "transfer",
      "outputs": [
        {
          "internalType": "bool",
          "name": "",
          "type": "bool"
        }
      ],
      "stateMutability": "nonpayable",
      "type": "function"
    },
    {
      "inputs": [
        {
          "internalType": "address",
          "name": "from",
          "type": "address"
        },
        {
          "internalType": "address",
          "name": "to",
          "type": "address"
        },
        {
          "internalType": "uint256",
          "name": "amount",
          "type": "uint256"
        }
      ],
      "name": "transferFrom",
      "outputs": [
        {
          "internalType": "bool",
          "name": "",
          "type": "bool"
        }
      ],
      "stateMutability": "nonpayable",
      "type": "function"
    },
    {
      "inputs": [
        {
          "internalType": "address",
          "name": "newOwner",
          "type": "address"
        }
      ],
      "name": "transferOwnership",
      "outputs": [],
      "stateMutability": "nonpayable",
      "type": "function"
    },
    {
      "inputs": [
        {
          "internalType": "uint16",
          "name": "",
          "type": "uint16"
        }
      ],
      "name": "trustedRemoteLookup",
      "outputs": [
        {
          "internalType": "bytes",
          "name": "",
          "type": "bytes"
        }
      ],
      "stateMutability": "view",
      "type": "function"
    }
  ],
  "transactionHash": "0xc4741044dff56d6f647bf53e1d385ce208f6f4d47ff4ab87322a96ac5461c0b3",
  "args": [
    "0xbfD2135BFfbb0B5378b56643c2Df8a87552Bfa23"
  ],
  "numDeployments": 1,
  "solcInputHash": "6db9b13c677f17334b3bded03c5b0588",
  "bytecode": "0x60a06040523480156200001157600080fd5b50604051620051cc380380620051cc83398181016040528101906200003791906200025e565b6040518060400160405280600781526020017f4d79546f6b656e000000000000000000000000000000000000000000000000008152506040518060400160405280600381526020017f4d544b00000000000000000000000000000000000000000000000000000000008152508280620000c5620000b96200012860201b60201c565b6200013060201b60201c565b8073ffffffffffffffffffffffffffffffffffffffff1660808173ffffffffffffffffffffffffffffffffffffffff1681525050505081600990816200010c91906200050a565b5080600a90816200011e91906200050a565b50505050620005f1565b600033905090565b60008060009054906101000a900473ffffffffffffffffffffffffffffffffffffffff169050816000806101000a81548173ffffffffffffffffffffffffffffffffffffffff021916908373ffffffffffffffffffffffffffffffffffffffff1602179055508173ffffffffffffffffffffffffffffffffffffffff168173ffffffffffffffffffffffffffffffffffffffff167f8be0079c531659141344cd1fd0a4f28419497f9722a3daafe3b4186f6b6457e060405160405180910390a35050565b600080fd5b600073ffffffffffffffffffffffffffffffffffffffff82169050919050565b60006200022682620001f9565b9050919050565b620002388162000219565b81146200024457600080fd5b50565b60008151905062000258816200022d565b92915050565b600060208284031215620002775762000276620001f4565b5b6000620002878482850162000247565b91505092915050565b600081519050919050565b7f4e487b7100000000000000000000000000000000000000000000000000000000600052604160045260246000fd5b7f4e487b7100000000000000000000000000000000000000000000000000000000600052602260045260246000fd5b600060028204905060018216806200031257607f821691505b602082108103620003285762000327620002ca565b5b50919050565b60008190508160005260206000209050919050565b60006020601f8301049050919050565b600082821b905092915050565b600060088302620003927fffffffffffffffffffffffffffffffffffffffffffffffffffffffffffffffff8262000353565b6200039e868362000353565b95508019841693508086168417925050509392505050565b6000819050919050565b6000819050919050565b6000620003eb620003e5620003df84620003b6565b620003c0565b620003b6565b9050919050565b6000819050919050565b6200040783620003ca565b6200041f6200041682620003f2565b84845462000360565b825550505050565b600090565b6200043662000427565b62000443818484620003fc565b505050565b5b818110156200046b576200045f6000826200042c565b60018101905062000449565b5050565b601f821115620004ba5762000484816200032e565b6200048f8462000343565b810160208510156200049f578190505b620004b7620004ae8562000343565b83018262000448565b50505b505050565b600082821c905092915050565b6000620004df60001984600802620004bf565b1980831691505092915050565b6000620004fa8383620004cc565b9150826002028217905092915050565b620005158262000290565b67ffffffffffffffff8111156200053157620005306200029b565b5b6200053d8254620002f9565b6200054a8282856200046f565b600060209050601f8311600181146200058257600084156200056d578287015190505b620005798582620004ec565b865550620005e9565b601f19841662000592866200032e565b60005b82811015620005bc5784890151825560018201915060208501945060208101905062000595565b86831015620005dc5784890151620005d8601f891682620004cc565b8355505b6001600288020188555050505b505050505050565b608051614b8e6200063e6000396000818161097501528181610c6501528181610d4a01528181610f450152818161158b0152818161164601528181611bd301526129020152614b8e6000f3fe60806040526004361061022f5760003560e01c80638da5cb5b1161012e578063be05dea9116100ab578063df2a5b3b1161006f578063df2a5b3b1461089f578063e9d962d5146108c8578063eb8d72b7146108e4578063f2fde38b1461090d578063f5ecbdbc146109365761022f565b8063be05dea9146107c7578063c4461834146107f2578063cbed8b9c1461081d578063d1deba1f14610846578063dd62ed3e146108625761022f565b8063a457c2d7116100f2578063a457c2d7146106d0578063a6c3d1651461070d578063a9059cbb14610736578063b353aaa714610773578063baf3292d1461079e5761022f565b80638da5cb5b146105e75780639358928b14610612578063950c8a741461063d57806395d89b41146106685780639f38369a146106935761022f565b806339509351116101bc57806366ad5c8a1161018057806366ad5c8a146104f057806370a0823114610519578063715018a6146105565780637533d7881461056d5780638cfd8f5c146105aa5761022f565b806339509351146103d35780633d8b38f6146104105780633f1f4fa41461044d57806342d65a8d1461048a5780635b8c41e6146104b35761022f565b80630df37483116102035780630df37483146102ee57806310ddb1371461031757806318160ddd1461034057806323b872dd1461036b578063313ce567146103a85761022f565b80621d35671461023457806306fdde031461025d57806307e0db1714610288578063095ea7b3146102b1575b600080fd5b34801561024057600080fd5b5061025b60048036038101906102569190612c58565b610973565b005b34801561026957600080fd5b50610272610bc9565b60405161027f9190612d8f565b60405180910390f35b34801561029457600080fd5b506102af60048036038101906102aa9190612db1565b610c5b565b005b3480156102bd57600080fd5b506102d860048036038101906102d39190612e72565b610cf1565b6040516102e59190612ecd565b60405180910390f35b3480156102fa57600080fd5b5061031560048036038101906103109190612ee8565b610d14565b005b34801561032357600080fd5b5061033e60048036038101906103399190612db1565b610d40565b005b34801561034c57600080fd5b50610355610dd6565b6040516103629190612f37565b60405180910390f35b34801561037757600080fd5b50610392600480360381019061038d9190612f52565b610de0565b60405161039f9190612ecd565b60405180910390f35b3480156103b457600080fd5b506103bd610e0f565b6040516103ca9190612fc1565b60405180910390f35b3480156103df57600080fd5b506103fa60048036038101906103f59190612e72565b610e18565b6040516104079190612ecd565b60405180910390f35b34801561041c57600080fd5b5061043760048036038101906104329190612fdc565b610e4f565b6040516104449190612ecd565b60405180910390f35b34801561045957600080fd5b50610474600480360381019061046f9190612db1565b610f23565b6040516104819190612f37565b60405180910390f35b34801561049657600080fd5b506104b160048036038101906104ac9190612fdc565b610f3b565b005b3480156104bf57600080fd5b506104da60048036038101906104d5919061316c565b610fd7565b6040516104e791906131f4565b60405180910390f35b3480156104fc57600080fd5b5061051760048036038101906105129190612c58565b61101f565b005b34801561052557600080fd5b50610540600480360381019061053b919061320f565b611130565b60405161054d9190612f37565b60405180910390f35b34801561056257600080fd5b5061056b611179565b005b34801561057957600080fd5b50610594600480360381019061058f9190612db1565b61118d565b6040516105a19190613291565b60405180910390f35b3480156105b657600080fd5b506105d160048036038101906105cc91906132b3565b61122d565b6040516105de9190612f37565b60405180910390f35b3480156105f357600080fd5b506105fc611252565b6040516106099190613302565b60405180910390f35b34801561061e57600080fd5b5061062761127b565b6040516106349190612f37565b60405180910390f35b34801561064957600080fd5b5061065261128a565b60405161065f9190613302565b60405180910390f35b34801561067457600080fd5b5061067d6112b0565b60405161068a9190612d8f565b60405180910390f35b34801561069f57600080fd5b506106ba60048036038101906106b59190612db1565b611342565b6040516106c79190613291565b60405180910390f35b3480156106dc57600080fd5b506106f760048036038101906106f29190612e72565b61145b565b6040516107049190612ecd565b60405180910390f35b34801561071957600080fd5b50610734600480360381019061072f9190612fdc565b6114d2565b005b34801561074257600080fd5b5061075d60048036038101906107589190612e72565b611566565b60405161076a9190612ecd565b60405180910390f35b34801561077f57600080fd5b50610788611589565b604051610795919061337c565b60405180910390f35b3480156107aa57600080fd5b506107c560048036038101906107c0919061320f565b6115ad565b005b3480156107d357600080fd5b506107dc611630565b6040516107e99190612f37565b60405180910390f35b3480156107fe57600080fd5b50610807611636565b6040516108149190612f37565b60405180910390f35b34801561082957600080fd5b50610844600480360381019061083f9190613397565b61163c565b005b610860600480360381019061085b9190612c58565b6116de565b005b34801561086e57600080fd5b506108896004803603810190610884919061341f565b611921565b6040516108969190612f37565b60405180910390f35b3480156108ab57600080fd5b506108c660048036038101906108c1919061345f565b6119a8565b005b6108e260048036038101906108dd91906134de565b611a6c565b005b3480156108f057600080fd5b5061090b60048036038101906109069190612fdc565b611ad9565b005b34801561091957600080fd5b50610934600480360381019061092f919061320f565b611b4c565b005b34801561094257600080fd5b5061095d60048036038101906109589190613545565b611bcf565b60405161096a9190613291565b60405180910390f35b7f000000000000000000000000000000000000000000000000000000000000000073ffffffffffffffffffffffffffffffffffffffff166109b2611c80565b73ffffffffffffffffffffffffffffffffffffffff1614610a08576040517f08c379a00000000000000000000000000000000000000000000000000000000081526004016109ff906135f8565b60405180910390fd5b6000600160008861ffff1661ffff1681526020019081526020016000208054610a3090613647565b80601f0160208091040260200160405190810160405280929190818152602001828054610a5c90613647565b8015610aa95780601f10610a7e57610100808354040283529160200191610aa9565b820191906000526020600020905b815481529060010190602001808311610a8c57829003601f168201915b50505050509050805186869050148015610ac4575060008151115b8015610aed575080805190602001208686604051610ae39291906136a8565b6040518091039020145b610b2c576040517f08c379a0000000000000000000000000000000000000000000000000000000008152600401610b2390613733565b60405180910390fd5b610bc08787878080601f016020809104026020016040519081016040528093929190818152602001838380828437600081840152601f19601f820116905080830192505050505050508686868080601f016020809104026020016040519081016040528093929190818152602001838380828437600081840152601f19601f82011690508083019250505050505050611c88565b50505050505050565b606060098054610bd890613647565b80601f0160208091040260200160405190810160405280929190818152602001828054610c0490613647565b8015610c515780601f10610c2657610100808354040283529160200191610c51565b820191906000526020600020905b815481529060010190602001808311610c3457829003601f168201915b5050505050905090565b610c63611d53565b7f000000000000000000000000000000000000000000000000000000000000000073ffffffffffffffffffffffffffffffffffffffff166307e0db17826040518263ffffffff1660e01b8152600401610cbc9190613762565b600060405180830381600087803b158015610cd657600080fd5b505af1158015610cea573d6000803e3d6000fd5b5050505050565b600080610cfc611c80565b9050610d09818585611dd1565b600191505092915050565b610d1c611d53565b80600360008461ffff1661ffff168152602001908152602001600020819055505050565b610d48611d53565b7f000000000000000000000000000000000000000000000000000000000000000073ffffffffffffffffffffffffffffffffffffffff166310ddb137826040518263ffffffff1660e01b8152600401610da19190613762565b600060405180830381600087803b158015610dbb57600080fd5b505af1158015610dcf573d6000803e3d6000fd5b5050505050565b6000600854905090565b600080610deb611c80565b9050610df8858285611f9a565b610e03858585612026565b60019150509392505050565b60006012905090565b600080610e23611c80565b9050610e44818585610e358589611921565b610e3f91906137ac565b611dd1565b600191505092915050565b600080600160008661ffff1661ffff1681526020019081526020016000208054610e7890613647565b80601f0160208091040260200160405190810160405280929190818152602001828054610ea490613647565b8015610ef15780601f10610ec657610100808354040283529160200191610ef1565b820191906000526020600020905b815481529060010190602001808311610ed457829003601f168201915b505050505090508383604051610f089291906136a8565b60405180910390208180519060200120149150509392505050565b60036020528060005260406000206000915090505481565b610f43611d53565b7f000000000000000000000000000000000000000000000000000000000000000073ffffffffffffffffffffffffffffffffffffffff166342d65a8d8484846040518463ffffffff1660e01b8152600401610fa09392919061380d565b600060405180830381600087803b158015610fba57600080fd5b505af1158015610fce573d6000803e3d6000fd5b50505050505050565b60056020528260005260406000208280516020810182018051848252602083016020850120818352809550505050505060205280600052604060002060009250925050505481565b3073ffffffffffffffffffffffffffffffffffffffff1661103e611c80565b73ffffffffffffffffffffffffffffffffffffffff1614611094576040517f08c379a000000000000000000000000000000000000000000000000000000000815260040161108b906138b1565b60405180910390fd5b6111288686868080601f016020809104026020016040519081016040528093929190818152602001838380828437600081840152601f19601f820116905080830192505050505050508585858080601f016020809104026020016040519081016040528093929190818152602001838380828437600081840152601f19601f8201169050808301925050505050505061229f565b505050505050565b6000600660008373ffffffffffffffffffffffffffffffffffffffff1673ffffffffffffffffffffffffffffffffffffffff168152602001908152602001600020549050919050565b611181611d53565b61118b6000612301565b565b600160205280600052604060002060009150905080546111ac90613647565b80601f01602080910402602001604051908101604052809291908181526020018280546111d890613647565b80156112255780601f106111fa57610100808354040283529160200191611225565b820191906000526020600020905b81548152906001019060200180831161120857829003601f168201915b505050505081565b6002602052816000526040600020602052806000526040600020600091509150505481565b60008060009054906101000a900473ffffffffffffffffffffffffffffffffffffffff16905090565b6000611285610dd6565b905090565b600460009054906101000a900473ffffffffffffffffffffffffffffffffffffffff1681565b6060600a80546112bf90613647565b80601f01602080910402602001604051908101604052809291908181526020018280546112eb90613647565b80156113385780601f1061130d57610100808354040283529160200191611338565b820191906000526020600020905b81548152906001019060200180831161131b57829003601f168201915b5050505050905090565b60606000600160008461ffff1661ffff168152602001908152602001600020805461136c90613647565b80601f016020809104026020016040519081016040528092919081815260200182805461139890613647565b80156113e55780601f106113ba576101008083540402835291602001916113e5565b820191906000526020600020905b8154815290600101906020018083116113c857829003601f168201915b505050505090506000815103611430576040517f08c379a00000000000000000000000000000000000000000000000000000000081526004016114279061391d565b60405180910390fd5b611453600060148351611443919061393d565b836123c59092919063ffffffff16565b915050919050565b600080611466611c80565b905060006114748286611921565b9050838110156114b9576040517f08c379a00000000000000000000000000000000000000000000000000000000081526004016114b0906139e3565b60405180910390fd5b6114c68286868403611dd1565b60019250505092915050565b6114da611d53565b8181306040516020016114ef93929190613a4b565b604051602081830303815290604052600160008561ffff1661ffff16815260200190815260200160002090816115259190613c17565b507f8c0400cfe2d1199b1a725c78960bcc2a344d869b80590d0f2bd005db15a572ce8383836040516115599392919061380d565b60405180910390a1505050565b600080611571611c80565b905061157e818585612026565b600191505092915050565b7f000000000000000000000000000000000000000000000000000000000000000081565b6115b5611d53565b80600460006101000a81548173ffffffffffffffffffffffffffffffffffffffff021916908373ffffffffffffffffffffffffffffffffffffffff1602179055507f5db758e995a17ec1ad84bdef7e8c3293a0bd6179bcce400dff5d4c3d87db726b816040516116259190613302565b60405180910390a150565b600b5481565b61271081565b611644611d53565b7f000000000000000000000000000000000000000000000000000000000000000073ffffffffffffffffffffffffffffffffffffffff1663cbed8b9c86868686866040518663ffffffff1660e01b81526004016116a5959493929190613ce9565b600060405180830381600087803b1580156116bf57600080fd5b505af11580156116d3573d6000803e3d6000fd5b505050505050505050565b6000600560008861ffff1661ffff168152602001908152602001600020868660405161170b9291906136a8565b908152602001604051809103902060008567ffffffffffffffff1667ffffffffffffffff1681526020019081526020016000205490506000801b8103611786576040517f08c379a000000000000000000000000000000000000000000000000000000000815260040161177d90613da9565b60405180910390fd5b8083836040516117979291906136a8565b6040518091039020146117df576040517f08c379a00000000000000000000000000000000000000000000000000000000081526004016117d690613e3b565b60405180910390fd5b6000801b600560008961ffff1661ffff168152602001908152602001600020878760405161180e9291906136a8565b908152602001604051809103902060008667ffffffffffffffff1667ffffffffffffffff168152602001908152602001600020819055506118d98787878080601f016020809104026020016040519081016040528093929190818152602001838380828437600081840152601f19601f820116905080830192505050505050508686868080601f016020809104026020016040519081016040528093929190818152602001838380828437600081840152601f19601f8201169050808301925050505050505061229f565b7fc264d91f3adc5588250e1551f547752ca0cfa8f6b530d243b9f9f4cab10ea8e58787878785604051611910959493929190613e6a565b60405180910390a150505050505050565b6000600760008473ffffffffffffffffffffffffffffffffffffffff1673ffffffffffffffffffffffffffffffffffffffff16815260200190815260200160002060008373ffffffffffffffffffffffffffffffffffffffff1673ffffffffffffffffffffffffffffffffffffffff16815260200190815260200160002054905092915050565b6119b0611d53565b600081116119f3576040517f08c379a00000000000000000000000000000000000000000000000000000000081526004016119ea90613f04565b60405180910390fd5b80600260008561ffff1661ffff16815260200190815260200160002060008461ffff1661ffff168152602001908152602001600020819055507f9d5c7c0b934da8fefa9c7760c98383778a12dfbfc0c3b3106518f43fb9508ac0838383604051611a5f93929190613f24565b60405180910390a1505050565b8015611a8157611a7c83836124e3565b611a8c565b611a8b838361263a565b5b6000838383604051602001611aa393929190613f5b565b6040516020818303038152906040529050611ad285823360006040518060200160405280600081525034612809565b5050505050565b611ae1611d53565b8181600160008661ffff1661ffff1681526020019081526020016000209182611b0b929190613f9d565b507ffa41487ad5d6728f0b19276fa1eddc16558578f5109fc39d2dc33c3230470dab838383604051611b3f9392919061380d565b60405180910390a1505050565b611b54611d53565b600073ffffffffffffffffffffffffffffffffffffffff168173ffffffffffffffffffffffffffffffffffffffff1603611bc3576040517f08c379a0000000000000000000000000000000000000000000000000000000008152600401611bba906140df565b60405180910390fd5b611bcc81612301565b50565b60607f000000000000000000000000000000000000000000000000000000000000000073ffffffffffffffffffffffffffffffffffffffff1663f5ecbdbc868630866040518563ffffffff1660e01b8152600401611c3094939291906140ff565b600060405180830381865afa158015611c4d573d6000803e3d6000fd5b505050506040513d6000823e3d601f19601f82011682018060405250810190611c7691906141b4565b9050949350505050565b600033905090565b600080611d345a60966366ad5c8a60e01b89898989604051602401611cb094939291906141fd565b604051602081830303815290604052907bffffffffffffffffffffffffffffffffffffffffffffffffffffffff19166020820180517bffffffffffffffffffffffffffffffffffffffffffffffffffffffff83818316178352505050503073ffffffffffffffffffffffffffffffffffffffff1661299f909392919063ffffffff16565b9150915081611d4b57611d4a8686868685612a37565b5b505050505050565b611d5b611c80565b73ffffffffffffffffffffffffffffffffffffffff16611d79611252565b73ffffffffffffffffffffffffffffffffffffffff1614611dcf576040517f08c379a0000000000000000000000000000000000000000000000000000000008152600401611dc69061429c565b60405180910390fd5b565b600073ffffffffffffffffffffffffffffffffffffffff168373ffffffffffffffffffffffffffffffffffffffff1603611e40576040517f08c379a0000000000000000000000000000000000000000000000000000000008152600401611e379061432e565b60405180910390fd5b600073ffffffffffffffffffffffffffffffffffffffff168273ffffffffffffffffffffffffffffffffffffffff1603611eaf576040517f08c379a0000000000000000000000000000000000000000000000000000000008152600401611ea6906143c0565b60405180910390fd5b80600760008573ffffffffffffffffffffffffffffffffffffffff1673ffffffffffffffffffffffffffffffffffffffff16815260200190815260200160002060008473ffffffffffffffffffffffffffffffffffffffff1673ffffffffffffffffffffffffffffffffffffffff168152602001908152602001600020819055508173ffffffffffffffffffffffffffffffffffffffff168373ffffffffffffffffffffffffffffffffffffffff167f8c5be1e5ebec7d5bd14f71427d1e84f3dd0314c0f7b2291e5b200ac8c7c3b92583604051611f8d9190612f37565b60405180910390a3505050565b6000611fa68484611921565b90507fffffffffffffffffffffffffffffffffffffffffffffffffffffffffffffffff81146120205781811015612012576040517f08c379a00000000000000000000000000000000000000000000000000000000081526004016120099061442c565b60405180910390fd5b61201f8484848403611dd1565b5b50505050565b600073ffffffffffffffffffffffffffffffffffffffff168373ffffffffffffffffffffffffffffffffffffffff1603612095576040517f08c379a000000000000000000000000000000000000000000000000000000000815260040161208c906144be565b60405180910390fd5b600073ffffffffffffffffffffffffffffffffffffffff168273ffffffffffffffffffffffffffffffffffffffff1603612104576040517f08c379a00000000000000000000000000000000000000000000000000000000081526004016120fb90614550565b60405180910390fd5b61210f838383612ae5565b6000600660008573ffffffffffffffffffffffffffffffffffffffff1673ffffffffffffffffffffffffffffffffffffffff16815260200190815260200160002054905081811015612196576040517f08c379a000000000000000000000000000000000000000000000000000000000815260040161218d906145e2565b60405180910390fd5b818103600660008673ffffffffffffffffffffffffffffffffffffffff1673ffffffffffffffffffffffffffffffffffffffff1681526020019081526020016000208190555081600660008573ffffffffffffffffffffffffffffffffffffffff1673ffffffffffffffffffffffffffffffffffffffff168152602001908152602001600020600082825401925050819055508273ffffffffffffffffffffffffffffffffffffffff168473ffffffffffffffffffffffffffffffffffffffff167fddf252ad1be2c89b69c2b068fc378daa952ba7f163c4a11628f55a4df523b3ef846040516122869190612f37565b60405180910390a3612299848484612aea565b50505050565b6001600b60008282546122b291906137ac565b925050819055506000806000838060200190518101906122d2919061466a565b92509250925080156122ed576122e883836124e3565b6122f8565b6122f7838361263a565b5b50505050505050565b60008060009054906101000a900473ffffffffffffffffffffffffffffffffffffffff169050816000806101000a81548173ffffffffffffffffffffffffffffffffffffffff021916908373ffffffffffffffffffffffffffffffffffffffff1602179055508173ffffffffffffffffffffffffffffffffffffffff168173ffffffffffffffffffffffffffffffffffffffff167f8be0079c531659141344cd1fd0a4f28419497f9722a3daafe3b4186f6b6457e060405160405180910390a35050565b606081601f836123d591906137ac565b1015612416576040517f08c379a000000000000000000000000000000000000000000000000000000000815260040161240d90614709565b60405180910390fd5b818361242291906137ac565b84511015612465576040517f08c379a000000000000000000000000000000000000000000000000000000000815260040161245c90614775565b60405180910390fd5b606082156000811461248657604051915060008252602082016040526124d7565b6040519150601f8416801560200281840101858101878315602002848b0101015b818310156124c457805183526020830192506020810190506124a7565b50868552601f19601f8301166040525050505b50809150509392505050565b600073ffffffffffffffffffffffffffffffffffffffff168273ffffffffffffffffffffffffffffffffffffffff1603612552576040517f08c379a0000000000000000000000000000000000000000000000000000000008152600401612549906147e1565b60405180910390fd5b61255e60008383612ae5565b806008600082825461257091906137ac565b9250508190555080600660008473ffffffffffffffffffffffffffffffffffffffff1673ffffffffffffffffffffffffffffffffffffffff168152602001908152602001600020600082825401925050819055508173ffffffffffffffffffffffffffffffffffffffff16600073ffffffffffffffffffffffffffffffffffffffff167fddf252ad1be2c89b69c2b068fc378daa952ba7f163c4a11628f55a4df523b3ef836040516126229190612f37565b60405180910390a361263660008383612aea565b5050565b600073ffffffffffffffffffffffffffffffffffffffff168273ffffffffffffffffffffffffffffffffffffffff16036126a9576040517f08c379a00000000000000000000000000000000000000000000000000000000081526004016126a090614873565b60405180910390fd5b6126b582600083612ae5565b6000600660008473ffffffffffffffffffffffffffffffffffffffff1673ffffffffffffffffffffffffffffffffffffffff1681526020019081526020016000205490508181101561273c576040517f08c379a000000000000000000000000000000000000000000000000000000000815260040161273390614905565b60405180910390fd5b818103600660008573ffffffffffffffffffffffffffffffffffffffff1673ffffffffffffffffffffffffffffffffffffffff1681526020019081526020016000208190555081600860008282540392505081905550600073ffffffffffffffffffffffffffffffffffffffff168373ffffffffffffffffffffffffffffffffffffffff167fddf252ad1be2c89b69c2b068fc378daa952ba7f163c4a11628f55a4df523b3ef846040516127f09190612f37565b60405180910390a361280483600084612aea565b505050565b6000600160008861ffff1661ffff168152602001908152602001600020805461283190613647565b80601f016020809104026020016040519081016040528092919081815260200182805461285d90613647565b80156128aa5780601f1061287f576101008083540402835291602001916128aa565b820191906000526020600020905b81548152906001019060200180831161288d57829003601f168201915b5050505050905060008151036128f5576040517f08c379a00000000000000000000000000000000000000000000000000000000081526004016128ec90614997565b60405180910390fd5b612900878751612aef565b7f000000000000000000000000000000000000000000000000000000000000000073ffffffffffffffffffffffffffffffffffffffff1663c58031008389848a8a8a8a6040518863ffffffff1660e01b8152600401612964969594939291906149c6565b6000604051808303818588803b15801561297d57600080fd5b505af1158015612991573d6000803e3d6000fd5b505050505050505050505050565b6000606060008060008661ffff1667ffffffffffffffff8111156129c6576129c5613041565b5b6040519080825280601f01601f1916602001820160405280156129f85781602001600182028036833780820191505090505b50905060008087516020890160008d8df191503d925086831115612a1a578692505b828152826000602083013e81819450945050505094509492505050565b8180519060200120600560008761ffff1661ffff16815260200190815260200160002085604051612a689190614a6d565b908152602001604051809103902060008567ffffffffffffffff1667ffffffffffffffff168152602001908152602001600020819055507fe183f33de2837795525b4792ca4cd60535bd77c53b7e7030060bfcf5734d6b0c8585858585604051612ad6959493929190614a84565b60405180910390a15050505050565b505050565b505050565b6000600360008461ffff1661ffff16815260200190815260200160002054905060008103612b1d5761271090505b80821115612b60576040517f08c379a0000000000000000000000000000000000000000000000000000000008152600401612b5790614b38565b60405180910390fd5b505050565b6000604051905090565b600080fd5b600080fd5b600061ffff82169050919050565b612b9081612b79565b8114612b9b57600080fd5b50565b600081359050612bad81612b87565b92915050565b600080fd5b600080fd5b600080fd5b60008083601f840112612bd857612bd7612bb3565b5b8235905067ffffffffffffffff811115612bf557612bf4612bb8565b5b602083019150836001820283011115612c1157612c10612bbd565b5b9250929050565b600067ffffffffffffffff82169050919050565b612c3581612c18565b8114612c4057600080fd5b50565b600081359050612c5281612c2c565b92915050565b60008060008060008060808789031215612c7557612c74612b6f565b5b6000612c8389828a01612b9e565b965050602087013567ffffffffffffffff811115612ca457612ca3612b74565b5b612cb089828a01612bc2565b95509550506040612cc389828a01612c43565b935050606087013567ffffffffffffffff811115612ce457612ce3612b74565b5b612cf089828a01612bc2565b92509250509295509295509295565b600081519050919050565b600082825260208201905092915050565b60005b83811015612d39578082015181840152602081019050612d1e565b60008484015250505050565b6000601f19601f8301169050919050565b6000612d6182612cff565b612d6b8185612d0a565b9350612d7b818560208601612d1b565b612d8481612d45565b840191505092915050565b60006020820190508181036000830152612da98184612d56565b905092915050565b600060208284031215612dc757612dc6612b6f565b5b6000612dd584828501612b9e565b91505092915050565b600073ffffffffffffffffffffffffffffffffffffffff82169050919050565b6000612e0982612dde565b9050919050565b612e1981612dfe565b8114612e2457600080fd5b50565b600081359050612e3681612e10565b92915050565b6000819050919050565b612e4f81612e3c565b8114612e5a57600080fd5b50565b600081359050612e6c81612e46565b92915050565b60008060408385031215612e8957612e88612b6f565b5b6000612e9785828601612e27565b9250506020612ea885828601612e5d565b9150509250929050565b60008115159050919050565b612ec781612eb2565b82525050565b6000602082019050612ee26000830184612ebe565b92915050565b60008060408385031215612eff57612efe612b6f565b5b6000612f0d85828601612b9e565b9250506020612f1e85828601612e5d565b9150509250929050565b612f3181612e3c565b82525050565b6000602082019050612f4c6000830184612f28565b92915050565b600080600060608486031215612f6b57612f6a612b6f565b5b6000612f7986828701612e27565b9350506020612f8a86828701612e27565b9250506040612f9b86828701612e5d565b9150509250925092565b600060ff82169050919050565b612fbb81612fa5565b82525050565b6000602082019050612fd66000830184612fb2565b92915050565b600080600060408486031215612ff557612ff4612b6f565b5b600061300386828701612b9e565b935050602084013567ffffffffffffffff81111561302457613023612b74565b5b61303086828701612bc2565b92509250509250925092565b600080fd5b7f4e487b7100000000000000000000000000000000000000000000000000000000600052604160045260246000fd5b61307982612d45565b810181811067ffffffffffffffff8211171561309857613097613041565b5b80604052505050565b60006130ab612b65565b90506130b78282613070565b919050565b600067ffffffffffffffff8211156130d7576130d6613041565b5b6130e082612d45565b9050602081019050919050565b82818337600083830152505050565b600061310f61310a846130bc565b6130a1565b90508281526020810184848401111561312b5761312a61303c565b5b6131368482856130ed565b509392505050565b600082601f83011261315357613152612bb3565b5b81356131638482602086016130fc565b91505092915050565b60008060006060848603121561318557613184612b6f565b5b600061319386828701612b9e565b935050602084013567ffffffffffffffff8111156131b4576131b3612b74565b5b6131c08682870161313e565b92505060406131d186828701612c43565b9150509250925092565b6000819050919050565b6131ee816131db565b82525050565b600060208201905061320960008301846131e5565b92915050565b60006020828403121561322557613224612b6f565b5b600061323384828501612e27565b91505092915050565b600081519050919050565b600082825260208201905092915050565b60006132638261323c565b61326d8185613247565b935061327d818560208601612d1b565b61328681612d45565b840191505092915050565b600060208201905081810360008301526132ab8184613258565b905092915050565b600080604083850312156132ca576132c9612b6f565b5b60006132d885828601612b9e565b92505060206132e985828601612b9e565b9150509250929050565b6132fc81612dfe565b82525050565b600060208201905061331760008301846132f3565b92915050565b6000819050919050565b600061334261333d61333884612dde565b61331d565b612dde565b9050919050565b600061335482613327565b9050919050565b600061336682613349565b9050919050565b6133768161335b565b82525050565b6000602082019050613391600083018461336d565b92915050565b6000806000806000608086880312156133b3576133b2612b6f565b5b60006133c188828901612b9e565b95505060206133d288828901612b9e565b94505060406133e388828901612e5d565b935050606086013567ffffffffffffffff81111561340457613403612b74565b5b61341088828901612bc2565b92509250509295509295909350565b6000806040838503121561343657613435612b6f565b5b600061344485828601612e27565b925050602061345585828601612e27565b9150509250929050565b60008060006060848603121561347857613477612b6f565b5b600061348686828701612b9e565b935050602061349786828701612b9e565b92505060406134a886828701612e5d565b9150509250925092565b6134bb81612eb2565b81146134c657600080fd5b50565b6000813590506134d8816134b2565b92915050565b600080600080608085870312156134f8576134f7612b6f565b5b600061350687828801612b9e565b945050602061351787828801612e27565b935050604061352887828801612e5d565b9250506060613539878288016134c9565b91505092959194509250565b6000806000806080858703121561355f5761355e612b6f565b5b600061356d87828801612b9e565b945050602061357e87828801612b9e565b935050604061358f87828801612e27565b92505060606135a087828801612e5d565b91505092959194509250565b7f4c7a4170703a20696e76616c696420656e64706f696e742063616c6c65720000600082015250565b60006135e2601e83612d0a565b91506135ed826135ac565b602082019050919050565b60006020820190508181036000830152613611816135d5565b9050919050565b7f4e487b7100000000000000000000000000000000000000000000000000000000600052602260045260246000fd5b6000600282049050600182168061365f57607f821691505b60208210810361367257613671613618565b5b50919050565b600081905092915050565b600061368f8385613678565b935061369c8385846130ed565b82840190509392505050565b60006136b5828486613683565b91508190509392505050565b7f4c7a4170703a20696e76616c696420736f757263652073656e64696e6720636f60008201527f6e74726163740000000000000000000000000000000000000000000000000000602082015250565b600061371d602683612d0a565b9150613728826136c1565b604082019050919050565b6000602082019050818103600083015261374c81613710565b9050919050565b61375c81612b79565b82525050565b60006020820190506137776000830184613753565b92915050565b7f4e487b7100000000000000000000000000000000000000000000000000000000600052601160045260246000fd5b60006137b782612e3c565b91506137c283612e3c565b92508282019050808211156137da576137d961377d565b5b92915050565b60006137ec8385613247565b93506137f98385846130ed565b61380283612d45565b840190509392505050565b60006040820190506138226000830186613753565b81810360208301526138358184866137e0565b9050949350505050565b7f4e6f6e626c6f636b696e674c7a4170703a2063616c6c6572206d75737420626560008201527f204c7a4170700000000000000000000000000000000000000000000000000000602082015250565b600061389b602683612d0a565b91506138a68261383f565b604082019050919050565b600060208201905081810360008301526138ca8161388e565b9050919050565b7f4c7a4170703a206e6f20747275737465642070617468207265636f7264000000600082015250565b6000613907601d83612d0a565b9150613912826138d1565b602082019050919050565b60006020820190508181036000830152613936816138fa565b9050919050565b600061394882612e3c565b915061395383612e3c565b925082820390508181111561396b5761396a61377d565b5b92915050565b7f45524332303a2064656372656173656420616c6c6f77616e63652062656c6f7760008201527f207a65726f000000000000000000000000000000000000000000000000000000602082015250565b60006139cd602583612d0a565b91506139d882613971565b604082019050919050565b600060208201905081810360008301526139fc816139c0565b9050919050565b60008160601b9050919050565b6000613a1b82613a03565b9050919050565b6000613a2d82613a10565b9050919050565b613a45613a4082612dfe565b613a22565b82525050565b6000613a58828587613683565b9150613a648284613a34565b601482019150819050949350505050565b60008190508160005260206000209050919050565b60006020601f8301049050919050565b600082821b905092915050565b600060088302613ad77fffffffffffffffffffffffffffffffffffffffffffffffffffffffffffffffff82613a9a565b613ae18683613a9a565b95508019841693508086168417925050509392505050565b6000613b14613b0f613b0a84612e3c565b61331d565b612e3c565b9050919050565b6000819050919050565b613b2e83613af9565b613b42613b3a82613b1b565b848454613aa7565b825550505050565b600090565b613b57613b4a565b613b62818484613b25565b505050565b5b81811015613b8657613b7b600082613b4f565b600181019050613b68565b5050565b601f821115613bcb57613b9c81613a75565b613ba584613a8a565b81016020851015613bb4578190505b613bc8613bc085613a8a565b830182613b67565b50505b505050565b600082821c905092915050565b6000613bee60001984600802613bd0565b1980831691505092915050565b6000613c078383613bdd565b9150826002028217905092915050565b613c208261323c565b67ffffffffffffffff811115613c3957613c38613041565b5b613c438254613647565b613c4e828285613b8a565b600060209050601f831160018114613c815760008415613c6f578287015190505b613c798582613bfb565b865550613ce1565b601f198416613c8f86613a75565b60005b82811015613cb757848901518255600182019150602085019450602081019050613c92565b86831015613cd45784890151613cd0601f891682613bdd565b8355505b6001600288020188555050505b505050505050565b6000608082019050613cfe6000830188613753565b613d0b6020830187613753565b613d186040830186612f28565b8181036060830152613d2b8184866137e0565b90509695505050505050565b7f4e6f6e626c6f636b696e674c7a4170703a206e6f2073746f726564206d65737360008201527f6167650000000000000000000000000000000000000000000000000000000000602082015250565b6000613d93602383612d0a565b9150613d9e82613d37565b604082019050919050565b60006020820190508181036000830152613dc281613d86565b9050919050565b7f4e6f6e626c6f636b696e674c7a4170703a20696e76616c6964207061796c6f6160008201527f6400000000000000000000000000000000000000000000000000000000000000602082015250565b6000613e25602183612d0a565b9150613e3082613dc9565b604082019050919050565b60006020820190508181036000830152613e5481613e18565b9050919050565b613e6481612c18565b82525050565b6000608082019050613e7f6000830188613753565b8181036020830152613e928186886137e0565b9050613ea16040830185613e5b565b613eae60608301846131e5565b9695505050505050565b7f4c7a4170703a20696e76616c6964206d696e4761730000000000000000000000600082015250565b6000613eee601583612d0a565b9150613ef982613eb8565b602082019050919050565b60006020820190508181036000830152613f1d81613ee1565b9050919050565b6000606082019050613f396000830186613753565b613f466020830185613753565b613f536040830184612f28565b949350505050565b6000606082019050613f7060008301866132f3565b613f7d6020830185612f28565b613f8a6040830184612ebe565b949350505050565b600082905092915050565b613fa78383613f92565b67ffffffffffffffff811115613fc057613fbf613041565b5b613fca8254613647565b613fd5828285613b8a565b6000601f8311600181146140045760008415613ff2578287013590505b613ffc8582613bfb565b865550614064565b601f19841661401286613a75565b60005b8281101561403a57848901358255600182019150602085019450602081019050614015565b868310156140575784890135614053601f891682613bdd565b8355505b6001600288020188555050505b50505050505050565b7f4f776e61626c653a206e6577206f776e657220697320746865207a65726f206160008201527f6464726573730000000000000000000000000000000000000000000000000000602082015250565b60006140c9602683612d0a565b91506140d48261406d565b604082019050919050565b600060208201905081810360008301526140f8816140bc565b9050919050565b60006080820190506141146000830187613753565b6141216020830186613753565b61412e60408301856132f3565b61413b6060830184612f28565b95945050505050565b6000614157614152846130bc565b6130a1565b9050828152602081018484840111156141735761417261303c565b5b61417e848285612d1b565b509392505050565b600082601f83011261419b5761419a612bb3565b5b81516141ab848260208601614144565b91505092915050565b6000602082840312156141ca576141c9612b6f565b5b600082015167ffffffffffffffff8111156141e8576141e7612b74565b5b6141f484828501614186565b91505092915050565b60006080820190506142126000830187613753565b81810360208301526142248186613258565b90506142336040830185613e5b565b81810360608301526142458184613258565b905095945050505050565b7f4f776e61626c653a2063616c6c6572206973206e6f7420746865206f776e6572600082015250565b6000614286602083612d0a565b915061429182614250565b602082019050919050565b600060208201905081810360008301526142b581614279565b9050919050565b7f45524332303a20617070726f76652066726f6d20746865207a65726f2061646460008201527f7265737300000000000000000000000000000000000000000000000000000000602082015250565b6000614318602483612d0a565b9150614323826142bc565b604082019050919050565b600060208201905081810360008301526143478161430b565b9050919050565b7f45524332303a20617070726f766520746f20746865207a65726f20616464726560008201527f7373000000000000000000000000000000000000000000000000000000000000602082015250565b60006143aa602283612d0a565b91506143b58261434e565b604082019050919050565b600060208201905081810360008301526143d98161439d565b9050919050565b7f45524332303a20696e73756666696369656e7420616c6c6f77616e6365000000600082015250565b6000614416601d83612d0a565b9150614421826143e0565b602082019050919050565b6000602082019050818103600083015261444581614409565b9050919050565b7f45524332303a207472616e736665722066726f6d20746865207a65726f20616460008201527f6472657373000000000000000000000000000000000000000000000000000000602082015250565b60006144a8602583612d0a565b91506144b38261444c565b604082019050919050565b600060208201905081810360008301526144d78161449b565b9050919050565b7f45524332303a207472616e7366657220746f20746865207a65726f206164647260008201527f6573730000000000000000000000000000000000000000000000000000000000602082015250565b600061453a602383612d0a565b9150614545826144de565b604082019050919050565b600060208201905081810360008301526145698161452d565b9050919050565b7f45524332303a207472616e7366657220616d6f756e742065786365656473206260008201527f616c616e63650000000000000000000000000000000000000000000000000000602082015250565b60006145cc602683612d0a565b91506145d782614570565b604082019050919050565b600060208201905081810360008301526145fb816145bf565b9050919050565b600061460d82612dde565b9050919050565b61461d81614602565b811461462857600080fd5b50565b60008151905061463a81614614565b92915050565b60008151905061464f81612e46565b92915050565b600081519050614664816134b2565b92915050565b60008060006060848603121561468357614682612b6f565b5b60006146918682870161462b565b93505060206146a286828701614640565b92505060406146b386828701614655565b9150509250925092565b7f736c6963655f6f766572666c6f77000000000000000000000000000000000000600082015250565b60006146f3600e83612d0a565b91506146fe826146bd565b602082019050919050565b60006020820190508181036000830152614722816146e6565b9050919050565b7f736c6963655f6f75744f66426f756e6473000000000000000000000000000000600082015250565b600061475f601183612d0a565b915061476a82614729565b602082019050919050565b6000602082019050818103600083015261478e81614752565b9050919050565b7f45524332303a206d696e7420746f20746865207a65726f206164647265737300600082015250565b60006147cb601f83612d0a565b91506147d682614795565b602082019050919050565b600060208201905081810360008301526147fa816147be565b9050919050565b7f45524332303a206275726e2066726f6d20746865207a65726f2061646472657360008201527f7300000000000000000000000000000000000000000000000000000000000000602082015250565b600061485d602183612d0a565b915061486882614801565b604082019050919050565b6000602082019050818103600083015261488c81614850565b9050919050565b7f45524332303a206275726e20616d6f756e7420657863656564732062616c616e60008201527f6365000000000000000000000000000000000000000000000000000000000000602082015250565b60006148ef602283612d0a565b91506148fa82614893565b604082019050919050565b6000602082019050818103600083015261491e816148e2565b9050919050565b7f4c7a4170703a2064657374696e6174696f6e20636861696e206973206e6f742060008201527f61207472757374656420736f7572636500000000000000000000000000000000602082015250565b6000614981603083612d0a565b915061498c82614925565b604082019050919050565b600060208201905081810360008301526149b081614974565b9050919050565b6149c081614602565b82525050565b600060c0820190506149db6000830189613753565b81810360208301526149ed8188613258565b90508181036040830152614a018187613258565b9050614a1060608301866149b7565b614a1d60808301856132f3565b81810360a0830152614a2f8184613258565b9050979650505050505050565b6000614a478261323c565b614a518185613678565b9350614a61818560208601612d1b565b80840191505092915050565b6000614a798284614a3c565b915081905092915050565b600060a082019050614a996000830188613753565b8181036020830152614aab8187613258565b9050614aba6040830186613e5b565b8181036060830152614acc8185613258565b90508181036080830152614ae08184613258565b90509695505050505050565b7f4c7a4170703a207061796c6f61642073697a6520697320746f6f206c61726765600082015250565b6000614b22602083612d0a565b9150614b2d82614aec565b602082019050919050565b60006020820190508181036000830152614b5181614b15565b905091905056fea26469706673582212208dff8ed9b703e593f7052393d51772beacfc3a2f9a7789d2bac76e01a4cb982164736f6c63430008120033",
  "devdoc": {
    "events": {
      "Approval(address,address,uint256)": {
        "details": "Emitted when the allowance of a `spender` for an `owner` is set by a call to {approve}. `value` is the new allowance."
      },
      "Transfer(address,address,uint256)": {
        "details": "Emitted when `value` tokens are moved from one account (`from`) to another (`to`). Note that `value` may be zero."
      }
    },
    "kind": "dev",
    "methods": {
      "allowance(address,address)": {
        "details": "See {IERC20-allowance}."
      },
      "approve(address,uint256)": {
        "details": "See {IERC20-approve}. NOTE: If `amount` is the maximum `uint256`, the allowance is not updated on `transferFrom`. This is semantically equivalent to an infinite approval. Requirements: - `spender` cannot be the zero address."
      },
      "balanceOf(address)": {
        "details": "See {IERC20-balanceOf}."
      },
      "decimals()": {
        "details": "Returns the number of decimals used to get its user representation. For example, if `decimals` equals `2`, a balance of `505` tokens should be displayed to a user as `5.05` (`505 / 10 ** 2`). Tokens usually opt for a value of 18, imitating the relationship between Ether and Wei. This is the default value returned by this function, unless it's overridden. NOTE: This information is only used for _display_ purposes: it in no way affects any of the arithmetic of the contract, including {IERC20-balanceOf} and {IERC20-transfer}."
      },
      "decreaseAllowance(address,uint256)": {
        "details": "Atomically decreases the allowance granted to `spender` by the caller. This is an alternative to {approve} that can be used as a mitigation for problems described in {IERC20-approve}. Emits an {Approval} event indicating the updated allowance. Requirements: - `spender` cannot be the zero address. - `spender` must have allowance for the caller of at least `subtractedValue`."
      },
      "increaseAllowance(address,uint256)": {
        "details": "Atomically increases the allowance granted to `spender` by the caller. This is an alternative to {approve} that can be used as a mitigation for problems described in {IERC20-approve}. Emits an {Approval} event indicating the updated allowance. Requirements: - `spender` cannot be the zero address."
      },
      "name()": {
        "details": "Returns the name of the token."
      },
      "owner()": {
        "details": "Returns the address of the current owner."
      },
      "renounceOwnership()": {
        "details": "Leaves the contract without owner. It will not be possible to call `onlyOwner` functions. Can only be called by the current owner. NOTE: Renouncing ownership will leave the contract without an owner, thereby disabling any functionality that is only available to the owner."
      },
      "symbol()": {
        "details": "Returns the symbol of the token, usually a shorter version of the name."
      },
      "totalSupply()": {
        "details": "See {IERC20-totalSupply}."
      },
      "transfer(address,uint256)": {
        "details": "See {IERC20-transfer}. Requirements: - `to` cannot be the zero address. - the caller must have a balance of at least `amount`."
      },
      "transferFrom(address,address,uint256)": {
        "details": "See {IERC20-transferFrom}. Emits an {Approval} event indicating the updated allowance. This is not required by the EIP. See the note at the beginning of {ERC20}. NOTE: Does not update the allowance if the current allowance is the maximum `uint256`. Requirements: - `from` and `to` cannot be the zero address. - `from` must have a balance of at least `amount`. - the caller must have allowance for ``from``'s tokens of at least `amount`."
      },
      "transferOwnership(address)": {
        "details": "Transfers ownership of the contract to a new account (`newOwner`). Can only be called by the current owner."
      }
    },
    "version": 1
  },
  "userdoc": {
    "kind": "user",
    "methods": {},
    "version": 1
  },
  "storageLayout": {
    "storage": [
      {
        "astId": 1417,
        "contract": "contracts/ERC20.sol:ERC20Example",
        "label": "_owner",
        "offset": 0,
        "slot": "0",
        "type": "t_address"
      },
      {
        "astId": 2638,
        "contract": "contracts/ERC20.sol:ERC20Example",
        "label": "trustedRemoteLookup",
        "offset": 0,
        "slot": "1",
        "type": "t_mapping(t_uint16,t_bytes_storage)"
      },
      {
        "astId": 2644,
        "contract": "contracts/ERC20.sol:ERC20Example",
        "label": "minDstGasLookup",
        "offset": 0,
        "slot": "2",
        "type": "t_mapping(t_uint16,t_mapping(t_uint16,t_uint256))"
      },
      {
        "astId": 2648,
        "contract": "contracts/ERC20.sol:ERC20Example",
        "label": "payloadSizeLimitLookup",
        "offset": 0,
        "slot": "3",
        "type": "t_mapping(t_uint16,t_uint256)"
      },
      {
        "astId": 2650,
        "contract": "contracts/ERC20.sol:ERC20Example",
        "label": "precrime",
        "offset": 0,
        "slot": "4",
        "type": "t_address"
      },
      {
        "astId": 2397,
        "contract": "contracts/ERC20.sol:ERC20Example",
        "label": "failedMessages",
        "offset": 0,
        "slot": "5",
        "type": "t_mapping(t_uint16,t_mapping(t_bytes_memory_ptr,t_mapping(t_uint64,t_bytes32)))"
      },
      {
        "astId": 1538,
        "contract": "contracts/ERC20.sol:ERC20Example",
        "label": "_balances",
        "offset": 0,
        "slot": "6",
        "type": "t_mapping(t_address,t_uint256)"
      },
      {
        "astId": 1544,
        "contract": "contracts/ERC20.sol:ERC20Example",
        "label": "_allowances",
        "offset": 0,
        "slot": "7",
        "type": "t_mapping(t_address,t_mapping(t_address,t_uint256))"
      },
      {
        "astId": 1546,
        "contract": "contracts/ERC20.sol:ERC20Example",
        "label": "_totalSupply",
        "offset": 0,
        "slot": "8",
        "type": "t_uint256"
      },
      {
        "astId": 1548,
        "contract": "contracts/ERC20.sol:ERC20Example",
        "label": "_name",
        "offset": 0,
        "slot": "9",
        "type": "t_string_storage"
      },
      {
        "astId": 1550,
        "contract": "contracts/ERC20.sol:ERC20Example",
        "label": "_symbol",
        "offset": 0,
        "slot": "10",
        "type": "t_string_storage"
      },
      {
        "astId": 2244,
        "contract": "contracts/ERC20.sol:ERC20Example",
        "label": "mockCounter",
        "offset": 0,
        "slot": "11",
        "type": "t_uint256"
      }
    ],
    "types": {
      "t_address": {
        "encoding": "inplace",
        "label": "address",
        "numberOfBytes": "20"
      },
      "t_bytes32": {
        "encoding": "inplace",
        "label": "bytes32",
        "numberOfBytes": "32"
      },
      "t_bytes_memory_ptr": {
        "encoding": "bytes",
        "label": "bytes",
        "numberOfBytes": "32"
      },
      "t_bytes_storage": {
        "encoding": "bytes",
        "label": "bytes",
        "numberOfBytes": "32"
      },
      "t_mapping(t_address,t_mapping(t_address,t_uint256))": {
        "encoding": "mapping",
        "key": "t_address",
        "label": "mapping(address => mapping(address => uint256))",
        "numberOfBytes": "32",
        "value": "t_mapping(t_address,t_uint256)"
      },
      "t_mapping(t_address,t_uint256)": {
        "encoding": "mapping",
        "key": "t_address",
        "label": "mapping(address => uint256)",
        "numberOfBytes": "32",
        "value": "t_uint256"
      },
      "t_mapping(t_bytes_memory_ptr,t_mapping(t_uint64,t_bytes32))": {
        "encoding": "mapping",
        "key": "t_bytes_memory_ptr",
        "label": "mapping(bytes => mapping(uint64 => bytes32))",
        "numberOfBytes": "32",
        "value": "t_mapping(t_uint64,t_bytes32)"
      },
      "t_mapping(t_uint16,t_bytes_storage)": {
        "encoding": "mapping",
        "key": "t_uint16",
        "label": "mapping(uint16 => bytes)",
        "numberOfBytes": "32",
        "value": "t_bytes_storage"
      },
      "t_mapping(t_uint16,t_mapping(t_bytes_memory_ptr,t_mapping(t_uint64,t_bytes32)))": {
        "encoding": "mapping",
        "key": "t_uint16",
        "label": "mapping(uint16 => mapping(bytes => mapping(uint64 => bytes32)))",
        "numberOfBytes": "32",
        "value": "t_mapping(t_bytes_memory_ptr,t_mapping(t_uint64,t_bytes32))"
      },
      "t_mapping(t_uint16,t_mapping(t_uint16,t_uint256))": {
        "encoding": "mapping",
        "key": "t_uint16",
        "label": "mapping(uint16 => mapping(uint16 => uint256))",
        "numberOfBytes": "32",
        "value": "t_mapping(t_uint16,t_uint256)"
      },
      "t_mapping(t_uint16,t_uint256)": {
        "encoding": "mapping",
        "key": "t_uint16",
        "label": "mapping(uint16 => uint256)",
        "numberOfBytes": "32",
        "value": "t_uint256"
      },
      "t_mapping(t_uint64,t_bytes32)": {
        "encoding": "mapping",
        "key": "t_uint64",
        "label": "mapping(uint64 => bytes32)",
        "numberOfBytes": "32",
        "value": "t_bytes32"
      },
      "t_string_storage": {
        "encoding": "bytes",
        "label": "string",
        "numberOfBytes": "32"
      },
      "t_uint16": {
        "encoding": "inplace",
        "label": "uint16",
        "numberOfBytes": "2"
      },
      "t_uint256": {
        "encoding": "inplace",
        "label": "uint256",
        "numberOfBytes": "32"
      },
      "t_uint64": {
        "encoding": "inplace",
        "label": "uint64",
        "numberOfBytes": "8"
      }
    }
  }
}